:020000040800F2
:1000000000200020AD1100080D1100080F1100089C
:1000100000000000000000000000000000000000E0
:1000200000000000000000000000000011110008A6
:100030000000000000000000131100081511000866
:10004000FD110008FD110008FD110008FD11000858
:10005000FD1100081D110008FD110008FD11000828
:10006000FD110008FD110008FD110008FD11000838
:10007000FD110008FD11000800000000FD1100083E
:1000800000000000FD11000800000000000000005A
:10009000FD11000800000000FD110008FD1100081E
:1000A000FD110008FD110008FD110008FD110008F8
:1000B000FD110008FD110008FD110008FD110008E8
:1000C00010B5064C2378002B07D1054B002B02D02E
:1000D000044800E000BF0123237010BD1404002079
:1000E0000000000058120008044B10B5002B03D08C
:1000F0000349044800E000BF10BDC04600000000F6
:100100001804002058120008002243088B4274D3C0
:1001100003098B425FD3030A8B4244D3030B8B4208
:1001200028D3030C8B420DD3FF22090212BA030C11
:100130008B4202D31212090265D0030B8B4219D3F2
:1001400000E0090AC30B8B4201D3CB03C01A524112
:10015000830B8B4201D38B03C01A5241430B8B425A
:1001600001D34B03C01A5241030B8B4201D30B0343
:10017000C01A5241C30A8B4201D3CB02C01A52416A
:10018000830A8B4201D38B02C01A5241430A8B422D
:1001900001D34B02C01A5241030A8B4201D30B0216
:1001A000C01A5241CDD2C3098B4201D3CB01C01A30
:1001B000524183098B4201D38B01C01A524143093A
:1001C0008B4201D34B01C01A524103098B4201D328
:1001D0000B01C01A5241C3088B4201D3CB00C01A95
:1001E000524183088B4201D38B00C01A524143080D
:1001F0008B4201D34B00C01A5241411A00D2014632
:10020000524110467047FFE701B5002000F006F8A4
:1002100002BDC0460029F7D076E770477047C04658
:10022000FA210A4B70B5890005001868FFF76CFFCA
:1002300000F06AF804000120002C05D102382200E9
:10024000290000F027F8200070BDC04610040020EF
:100250004023084A10B5116800200B431360FFF7D4
:10026000DFFF041E03D100F017FF200010BD0124A2
:10027000FBE7C04600200240024A136801331360C6
:100280007047C04634040020014B18687047C046D0
:100290003404002070B58901002814DA0F23C0B29D
:1002A0000340083B114A9B089B009B180322104007
:1002B0009040FC321500114085408140DC69AC4320
:1002C0002143D96170BD032583082840A840FC352F
:1002D0002E00074A9B009B18C0228640294081407F
:1002E00092009C58B44321439950EBE700ED00E0A5
:1002F00000E100E01F2318401E3B8340014A1360C9
:100300007047C04600E100E0094A431E01209342C5
:100310000DD8C021074A08485360036A09061B022A
:100320001B0A0B4303620020072390601360704791
:10033000FFFFFF0010E000E000ED00E0F0B5534AE1
:100340000B688218541EA24185B001930023053228
:100350000392019ADA4001D105B0F0BD01259D401C
:10036000019A2A40009200D18DE04A6894461022FA
:10037000644694432200013C022A1FD107240F2720
:100380001C40A400A740DA0892008218166ABE43F7
:100390000F69A7403E43166203245E00B4408268A2
:1003A000A243CC68B440224382606246D206D20F98
:1003B0009A404468AC432243426001E0012CEBD9EF
:1003C000032634005D00AC406246E4433240AA405C
:1003D000076827403A430260C26814408A68AA400E
:1003E00014436246C460D2004DD50125284C0F2726
:1003F000626B2A431D003540AD00AF406263254A61
:100400009C08A400A418A268BA43A0270292FF0582
:100410000022B8420CD0204F0132B84208D01F4F02
:100420000132B84204D01E4F3200B84200D0039AC5
:10043000AA406746029D2A43A2601A4A009C166899
:10044000009DE4433543FF0301D435002540674652
:1004500015605668009D3543BF0301D43500254023
:10046000674655609668009D3543FF0201D435000C
:10047000254067469560D568009E2E43BF0201D493
:1004800025402E00D660013363E7C04600E4FFAF8D
:10049000001002400000014000040050000800501D
:1004A000000C005000040140002A01D08161704717
:1004B0008162FCE770470000044B10B55A69104296
:1004C00002D05861FFF7F6FF10BDC046000401409E
:1004D0000C22184B10B5D9680A40082A26D00C2ADD
:1004E00006D0042A1AD11B68DB0621D4124810BD9D
:1004F0008A021248120F825C0902D868890F013102
:10050000C00304D50E485043FFF7FEFDEFE71B681C
:10051000DB0601D50B48F6E70748F4E780205B6867
:1005200000021B045B0F01339840E0E70448DEE75C
:100530000448DCE7001002400024F40080120008A8
:1005400000127A0000093D00F0B5050087B00028D0
:1005500002D1012007B0F0BD0C23BE4CE668E26872
:100560001E4080235B021A4001920268D20741D4E8
:100570002B689B0700D587E02B68DB0628D5002E6B
:1005800000D0D9E023689B0502D5EB69002BE0D0B1
:100590006268B1496B6A0A401A43626061682A6AFC
:1005A0000902090A12060A43626080225B0B0133CA
:1005B00012029A401300E16800200A06A749120FB0
:1005C0008A5CD340A64A1360FFF72AFE0028C1D1F7
:1005D0002B681B0700D5E6E02B685B0700D508E118
:1005E0002B689B0600D58DE1AB6A002B00D0BCE1E7
:1005F0000020AFE7082E04D00C2E09D1019A002A62
:1006000006D023689B03B3D56B68002BB0D1A0E75D
:100610006A689A4211D1226813432360FFF734FEBF
:1006200007008022236892021342A1D1FFF72CFE1B
:10063000C01B6428F5D903208CE7A021C9028A4297
:1006400005D180222168D2020A432260E3E72168B3
:1006500084480140216021680B400593059B824935
:1006600023680B402360002AD8D1FFF70DFE070056
:10067000802223689202134200D179E7FFF704FE3B
:10068000C01B6428F4D9D6E7EA68042E04D00C2EE7
:1006900025D1019B002B22D123685B0702D5002ABC
:1006A00000D156E761682B6970481B0201400B437B
:1006B0000921636023688B4313432360FFF708FF1E
:1006C000E368664A1B061B0FD35CD840644B186076
:1006D0000020FFF7A5FD002800D14DE73AE7236889
:1006E000002A18D009218B4313432360FFF7CCFD68
:1006F000070004222368134207D062682B695B4914
:100700001B020A401343636036E7FFF7BDFDC01BC1
:100710000228EED98FE7012293432360FFF7B4FD4F
:10072000070004222368134200D125E7FFF7ACFD40
:10073000C01B0228F5D97EE7EB69002B20D080236F
:1007400022685B0013432360FFF79EFD07008022B1
:100750002368920013420DD063683F4A13406A6ACF
:100760001343636062682B6A12021B06120A13436A
:1007700063602DE7FFF788FDC01B0228E7D95AE721
:1007800023683B4A13402360FFF77EFD0700802269
:1007900023689200134200D11AE7FFF775FDC01BD2
:1007A0000228F4D947E76A690123002A10D0226D94
:1007B00013432365FFF768FD07000222236D1342F0
:1007C00000D009E7FFF760FDC01B0228F5D932E72A
:1007D000226D9A432265FFF757FD07000222236D21
:1007E000134200D1F8E6FFF74FFDC01B0228F5D9F0
:1007F00021E780230021A26B5B0501911A4204D1FD
:10080000A26B1343A363012301938022194F52006B
:100810003B68134208D08022AB68520093422BD130
:10082000226D134323654CE080223B685200134342
:100830003B60FFF729FD80235B00029003933B6838
:10084000039A1342E7D1FFF71FFD029BC01A6428E9
:10085000F5D9F0E600100240FF1FFFFF70120008FC
:1008600010040020FFFFFEFFFFFFFBFFFFE0FFFF84
:10087000FFFEFFFF00700040002B16D1236D6C4A75
:1008800013402365236D6B4A13402365FFF7FCFC7F
:1008900007008022236D920013422AD0FFF7F4FC58
:1008A000654BC01B9842F4D9C5E6A021C9008B4214
:1008B0000BD18023216DDB000B432365236D1A438D
:1008C0002265FFF7E1FC07000EE0236D584A134054
:1008D0002365236D574A1340A4E7FFF7D5FC564B19
:1008E000C01B984200D9A6E68022236D92001342D5
:1008F000F3D0019B012B00D072E6A36B4F4A13404B
:10090000A3636DE6A96901234D4A002918D0A168A7
:100910001943A160616B0B4363638023116A9B01E0
:100920000B431362FFF7B0FC07000222A3681342D7
:1009300000D059E6FFF7A8FCC01B0228F5D97AE6DB
:10094000A1689943A160136A3E490B401362FFF707
:100950009BFC07000222A368134200D144E6FFF784
:1009600093FCC01B0228F5D965E60C2E43D0364A0D
:10097000022B2ED12368802613402360FFF784FCCE
:100980000700B604236833421DD1296BEB6AE26885
:100990000B432E490A4013436A6B80251343E360DF
:1009A000802322685B0413432360FFF76DFC06007D
:1009B000AD0423682B4200D01AE6FFF765FC801BCC
:1009C0000228F6D937E6FFF75FFCC01B0228D9D909
:1009D00031E62368802513402360FFF755FC0600AD
:1009E000AD0423682B4200D102E6FFF74DFC801BCB
:1009F0000228F6D91FE61800012B00D1AAE58022B3
:100A0000E368E96A52021A4001208A4200D0A1E557
:100A1000F022296B92031A408A4200D09AE5C02046
:100A200000040340686B181A431E9841C0B291E558
:100A3000FFFEFFFFFFFBFFFF88130000FFFFFFEF3C
:100A400000000140FFDFFFFFFFFFFFFEFFFF02FF8F
:100A5000F7B5061E019101D10120FEBD0122514CC6
:100A60000199236813408B4227D3326893072FD410
:100A7000D30735D40123226801991A40914200D24C
:100A800081E03268484C530700D584E0130706D54F
:100A9000E26833694549DB000A401343E360FFF72E
:100AA00017FDE368424A1B061B0FD35CD840414B3D
:100AB00018600020FFF7B4FBCFE723680199934348
:100AC0000B43236023681340019A9A42C4D1CCE7B8
:100AD000F0203549CB688343B0680343CB60C7E758
:100AE000314D72682B68022A19D19B03B4D50321BA
:100AF000EB688B431343EB60FFF7C6FB736807009B
:100B0000022B19D10C22EB681340082BB2D0FFF74F
:100B1000BBFB294BC01B9842F4D903209DE7032A55
:100B200002D19B01E3D497E7012A02D15B07DED40F
:100B300092E79B05DBD48FE7032B0BD10C22EB68EC
:100B40001340934296D0FFF79FFB1B4BC01B98426C
:100B5000F4D9E2E7012B10D00C22EB68134289D0C4
:100B6000FFF792FB144BC01B9842F5D9D5E7FFF76E
:100B70008BFB114BC01B9842CFD80C22EB68134063
:100B8000042BF4D176E722689A43226022681A4245
:100B900000D061E775E7E36808490B40F1680B4353
:100BA000E36073E70020024000100240FFC7FFFF30
:100BB000701200081004002088130000FFF8FFFFE7
:100BC000F8B504000D0016001F00226893682B4042
:100BD0009D4201D0002031E0731CF7D0FFF754FB99
:100BE000C01B8642F1D8E02123685A688A435A60C4
:100BF00082226168520091420CD18021A2680902D0
:100C00008A4203D08021C9008A4203D140211A6858
:100C10008A431A608021A26A89018A4206D1196832
:100C200007480140196019680A431A60230001222D
:100C300051331A700023032050342370F8BDC0468E
:100C4000FFDFFFFF1300822210B50400406852004E
:100C5000904208D10A0080212000FFF7B1FF002850
:100C600009D1002010BD220051321278052AF8D196
:100C70000A000121F0E72023626D0320134363651E
:100C8000F0E7000070B504000120002C37D00023ED
:100C90002500A36251352B78DBB2002B05D1220051
:100CA00050321370200000F005FA02234022216820
:100CB0002B700B68A06893430B606368A2690343C1
:100CC000E06803432069034360690343E069034329
:100CD000206A0343A06A034380208000104003433E
:100CE0000B600423120C1A40636A00201A434A6006
:100CF000CB69034A1340CB61012360652B7070BD43
:100D0000FFF7FFFFF0B587B0019303005033039363
:100D10001B7804000E0017000225012B79D0012357
:100D2000039A1370FFF7B0FA220002905132137841
:100D3000DBB2012B67D11D00002E64D0002F62D0E2
:100D40000233137000236365A363E786A387E387F9
:100D5000636423648023A2682663A7861B029A42E9
:100D600005D180232268DB0111680B431360402208
:100D700023681968114202D119680A431A60802158
:100D8000E06809016268884246D1002A01D0012F3B
:100D900007D132880236DA60E38E2663013B9BB2CC
:100DA000E3860225E38E002B15D1029A01992000DB
:100DB000FFF748FF002859D1A368002B06D10593FF
:100DC0002368DA6805929B680593059B656D6B1E29
:100DD0009D41EDB217E0226893682B4209D0236B46
:100DE00019880233D1602363E38E013B9BB2E38613
:100DF000D8E7FFF749FA029BC01A019B9842D1D36A
:100E00000133CFD003250123513423700023039AEB
:100E10001370280007B0F0BD002A01D0012F08D1BF
:100E200032781A73236B01332363E38E013B9BB249
:100E3000E3860225E38E002BB7D023689A682A4206
:100E40000AD0226B12781A73236B01332363E38E6B
:100E5000013B9BB2E386EDE7FFF716FA029BC01A4F
:100E6000019B8342E6D80133E4D0CBE720236365BE
:100E7000A2E7000010B594B03822002106A800F0C7
:100E8000E3F91422002101A800F0DEF91049114A0B
:100E90000B6800241A4080231B0113430B601023AE
:100EA00006930F3B0D93A02306A81B020F930E94ED
:100EB0001094FFF749FB0F23210001A8019302942E
:100EC000039404940594FFF7C3FD14B010BDC0460D
:100ED00000700040FFE7FFFFF8B506000F00A020FC
:100EE000802180250C4C6D0100224900C005FFF7D0
:100EF000DBFA290020000022FFF7D6FAFA233A0095
:100F000031009B000548FFF7FDFE2900012220006B
:100F1000FFF7CAFAF8BDC0460004005038040020AC
:100F2000F8B506000F00A020802180250C4C6D0133
:100F300001224900C005FFF7B7FA2900200000226E
:100F4000FFF7B2FAFA233A0031009B000548FFF799
:100F5000D9FE290001222000FFF7A6FAF8BDC046FD
:100F6000000400503804002010B58024E400012162
:100F70000348013CFFF7D4FF002CF8D110BDC04658
:100F800030040020F0B501250226A02789B0FFF724
:100F90005FF9FFF76FFF1422002103A800F054F956
:100FA000354BFF01DA6A39002A43DA62DA6A3348DC
:100FB0002A400192019ADA6A00243243DA62DB6A3B
:100FC000002233400293029BFFF76EFA8021A0209B
:100FD00000224900C005FFF767FAA020284B03A9AB
:100FE000C005049305940395FFF7A8F903A92348C6
:100FF0000594069403970495FFF7A0F98023A02099
:101000005B0003A9C0050393059406940495FFF7BC
:1010100095F9220021000520FFF73CF90520FFF794
:1010200069F91848184B8460036082235B004360B1
:10103000FC338361D13BFF3BC460046144610462C3
:10104000446284620734C361C462FFF71BFE2A0056
:1010500039000A48FFF728FA21000C48FFF73CFF47
:1010600031000B48FFF738FFFFF77EFF802109486A
:10107000C900FFF755FFFEE70010024000040050D2
:101080000000211038040020003800400204002035
:1010900000040020000000200122054B596B0A4388
:1010A0005A638022996B52050A439A637047C0467F
:1010B0000010024010B5040086B01422002101A8DF
:1010C00000F0C2F80E4B22689A4217D180220D4BD5
:1010D000D201996B0C480A439A630222D96A1143E0
:1010E000D962DB6A01A913400093009BA0231B0275
:1010F0000193032302920493FFF720F906B010BD79
:101100000038004000100240000400507047FEE725
:101110007047704710B5FFF7AFF810BD10B5094C18
:1011200002212378002B08D00748FFF7D5FE0023C3
:1011300001202370FFF7C0F910BD0448FFF7CCFE73
:101140000123F5E731040020090400200B040020EE
:101150008022104B520019680A431A60DA680E495F
:101160000A40DA601A680D490A4001211A609A683B
:101170008A439A601A680A490A401A60DA6809497B
:101180000A40DA6000221A618022074B12059A6039
:101190007047C046001002400C40FF88F6FFF6FE84
:1011A000FFFFFBFFFFFF02FF00ED00E00D4885465B
:1011B000002103E00C4B5B58435004310B480C4BAF
:1011C00042189A42F6D30B4A02E00023136004321D
:1011D000094B9A42F9D3FFF7BBFF00F011F8FFF774
:1011E000D1FEFEE70020002094120008000000203D
:1011F000140400201404002090040020FEE70000E6
:1012000070B500260C4D0D4C641BA410A64209D1EC
:10121000002600F021F80A4D0A4C641BA410A642D7
:1012200005D170BDB300EB5898470136EEE7B30027
:10123000EB5898470136F2E78C1200088C12000830
:101240008C1200089012000803008218934200D10B
:10125000704719700133F9E7F8B5C046F8BC08BC0F
:101260009E467047F8B5C046F8BC08BC9E4670471D
:101270000000000000000000010203040607080946
:0C128000030406080C10182030000000C9
:04128C00E90000086D
:04129000C100000891
:10129400000000C0FEFEFE0E0E7EFCF8C000000042
:1012A40000000000000000000000C0F8FC7E0E0EEC
:1012B400FEFEFEC000000000000000000000000070
:1012C40000FC3FFF000000000000000000000000E0
:1012D40000000000000000000000FEFEFEFEFE0E06
:1012E4000E0E0E0E0E0E0E0E0E1E1E3CFCF8F0E040
:1012F400000000000000000000F0F8FCFC3E1E1E90
:101304000E0E0E0E0E0E0E0E0E0E0E0E0E0E0E0007
:10131400000000FFFFFF0F000000030F7FFEF0C07E
:1013240000000000000000C0F0FE7F0F030000007A
:101334000FFFFFFF0000000000000000000000801D
:10134400FE030007FC000000000000000000000095
:1013540000000000000000000000FFFFFFFFFF800E
:1013640080808080808080808080C0E0FFFF7F3F1D
:101374000000000000000000000F3F7FFFF8F0F0C5
:10138400E0E0E0C0C0C0C080808000000000000039
:10139400000000FFFFFF00000000000000073FFF07
:1013A400FFF0800080F0FFFF3F0700000000000016
:1013B40000FFFFFF00000000000000000000703F7D
:1013C400000000003FC0000000000000000000001A
:1013D40000000000000000000000FFFFFFFFFF0707
:1013E4000707070707070707070F7FFDF0F0C0008F
:1013F40000000000000000000000000000000101E7
:101404000101010303030307070F1FFFFEFCF000A4
:101414000000007F7F7F000000000000000000014A
:101424000707070607070701000000000000000087
:10143400007F7F7F0080F8E00000000000F00F00D4
:101444000000000000FF0000000000000000000099
:1014540000000080F03CF0C00000FFFFFFFFFF0031
:101464000000000000000000000000031F7F7F7EDA
:101474007800000000000000000070707070707050
:101484007070707070707078787C3E3F3F1F0300FE
:101494000C0C0C0C0C0C0C0C0C0C0C0C0C0C0C0C88
:1014A4000C0C0C0C0C0C0C0C0C0C0C0C0C0C0C0C78
:1014B4000C0C0C0C0C0700037C800000FC070000E3
:1014C400000000000003FF00000000C0F0E0800006
:1014D40080F01C070000000F1FF8E0000000C0F8B7
:1014E4000C0C0C0C0C0C0C0C0C0C0C0C0C0C0C0C38
:1014F4000C0C0C0C0C0C0C0C0C0C0C0C0C0C0C0C28
:101504000C0C0C0C0C0C0C0C0C0C0C0C0C0C0C0C17
:1015140000000000000000000000000000000000C7
:1015240000000000000000000000000000000000B7
:1015340000000000000000000007F87F0100000028
:101544000000000000001FE0000000FF000107078A
:1015540007010000000000000000031F3C1F0300FF
:101564000000000000000000000000000000000077
:101574000000000000000000000000000000000067
:101584000000000000000000000000000000000057
:101594000000000000000000000000000000000047
:1015A4000000000000000000000000000000000037
:1015B4000000000000000000000001000000000026
:1015C40000000000000000FF0000FC3F00000000DD
:1015D4000000000000000000000000000000000007
:1015E40000000000000000000000000000000000F7
:1015F40000000000000000000000000000000000E7
:1016040000000000000000000000000000000000D6
:1016140000000000000000000000000000000000C6
:1016240000000000000000000000000000000000B6
:1016340000000000000000000000000000000000A6
:101644000000000000000001FFFC0F00000000008B
:101654000000000000000000000000000000000086
:101664000000000000000000000000000000000076
:101674000000000000000000000000000000000066
:101684000000000000000000000000000000000056
:10169400C8A1A83FD3002010AF81FF810F00000034
:0416A4000000200022
:04000005080011AD31
:00000001FF
