:020000040800F2
:1000000000200020FD180008D5160008D7160008AB
:1000100000000000000000000000000000000000E0
:10002000000000000000000000000000D9160008D9
:100030000000000000000000DB160008DD160008CC
:100040004D1900084D1900084D1900084D190008F8
:100050004D190008E51600084D1900084D19000853
:100060004D1900084D1900084D1900084D190008D8
:100070004D1900084D19000800000000F116000895
:10008000000000004D190008000000000000000002
:100090004D190008000000004D1900084D19000816
:1000A0004D1900084D1900084D1900084D19000898
:1000B0004D1900084D1900084D1900084D19000888
:1000C00010B5064C2378002B07D1054B002B02D02E
:1000D000044800E000BF0123237010BD0405002088
:1000E00000000000BC190008044B10B5002B03D021
:1000F0000349044800E000BF10BDC04600000000F6
:1001000008050020BC190008002243088B4274D364
:1001100003098B425FD3030A8B4244D3030B8B4208
:1001200028D3030C8B420DD3FF22090212BA030C11
:100130008B4202D31212090265D0030B8B4219D3F2
:1001400000E0090AC30B8B4201D3CB03C01A524112
:10015000830B8B4201D38B03C01A5241430B8B425A
:1001600001D34B03C01A5241030B8B4201D30B0343
:10017000C01A5241C30A8B4201D3CB02C01A52416A
:10018000830A8B4201D38B02C01A5241430A8B422D
:1001900001D34B02C01A5241030A8B4201D30B0216
:1001A000C01A5241CDD2C3098B4201D3CB01C01A30
:1001B000524183098B4201D38B01C01A524143093A
:1001C0008B4201D34B01C01A524103098B4201D328
:1001D0000B01C01A5241C3088B4201D3CB00C01A95
:1001E000524183088B4201D38B00C01A524143080D
:1001F0008B4201D34B00C01A5241411A00D2014632
:10020000524110467047FFE701B5002000F006F8A4
:1002100002BDC0460029F7D076E770477047C04658
:10022000FA210A4B70B5890005001868FFF76CFFCA
:1002300000F06AF804000120002C05D102382200E9
:10024000290000F027F8200070BDC04600050020FE
:100250004023084A10B5116800200B431360FFF7D4
:10026000DFFF041E03D101F0E5F9200010BD0124D9
:10027000FBE7C04600200240024A136801331360C6
:100280007047C04624050020014B18687047C046DF
:100290002405002070B58901002814DA0F23C0B2AC
:1002A0000340083B114A9B089B009B180322104007
:1002B0009040FC321500114085408140DC69AC4320
:1002C0002143D96170BD032583082840A840FC352F
:1002D0002E00074A9B009B18C0228640294081407F
:1002E00092009C58B44321439950EBE700ED00E0A5
:1002F00000E100E01F2318401E3B8340014A1360C9
:100300007047C04600E100E0094A431E01209342C5
:100310000DD8C021074A08485360036A09061B022A
:100320001B0A0B4303620020072390601360704791
:10033000FFFFFF0010E000E000ED00E0F0B5534AE1
:100340000B688218541EA24185B001930023053228
:100350000392019ADA4001D105B0F0BD01259D401C
:10036000019A2A40009200D18DE04A6894461022FA
:10037000644694432200013C022A1FD107240F2720
:100380001C40A400A740DA0892008218166ABE43F7
:100390000F69A7403E43166203245E00B4408268A2
:1003A000A243CC68B440224382606246D206D20F98
:1003B0009A404468AC432243426001E0012CEBD9EF
:1003C000032634005D00AC406246E4433240AA405C
:1003D000076827403A430260C26814408A68AA400E
:1003E00014436246C460D2004DD50125284C0F2726
:1003F000626B2A431D003540AD00AF406263254A61
:100400009C08A400A418A268BA43A0270292FF0582
:100410000022B8420CD0204F0132B84208D01F4F02
:100420000132B84204D01E4F3200B84200D0039AC5
:10043000AA406746029D2A43A2601A4A009C166899
:10044000009DE4433543FF0301D435002540674652
:1004500015605668009D3543BF0301D43500254023
:10046000674655609668009D3543FF0201D435000C
:10047000254067469560D568009E2E43BF0201D493
:1004800025402E00D660013363E7C04600E4FFAF8D
:10049000001002400000014000040050000800501D
:1004A000000C005000040140002A01D08161704717
:1004B0008162FCE7044B10B55A69104202D05861C2
:1004C00000F048FF10BDC046000401400C22184B4C
:1004D00010B5D9680A40082A26D00C2A06D0042A6A
:1004E0001AD11B68DB0621D4124810BD8A021248BB
:1004F000120F825C0902D868890F0131C00304D54C
:100500000E485043FFF700FEEFE71B68DB0601D5FE
:100510000B48F6E70748F4E780205B6800021B04FD
:100520005B0F01339840E0E70448DEE70448DCE76E
:10053000001002400024F400191A000800127A008A
:1005400000093D00F0B5050087B0002802D1012068
:1005500007B0F0BD0C23BE4CE668E2681E40802365
:100560005B021A4001920268D20741D42B689B07B4
:1005700000D587E02B68DB0628D5002E00D0D9E017
:1005800023689B0502D5EB69002BE0D06268B14976
:100590006B6A0A401A43626061682A6A0902090AA2
:1005A00012060A43626080225B0B013312029A40FA
:1005B0001300E16800200A06A749120F8A5CD340A5
:1005C000A64A1360FFF72CFE0028C1D12B681B0739
:1005D00000D5E6E02B685B0700D508E12B689B0699
:1005E00000D58DE1AB6A002B00D0BCE10020AFE765
:1005F000082E04D00C2E09D1019A002A06D02368B7
:100600009B03B3D56B68002BB0D1A0E76A689A4210
:1006100011D1226813432360FFF736FE07008022C2
:10062000236892021342A1D1FFF72EFEC01B64285B
:10063000F5D903208CE7A021C9028A4205D1802286
:100640002168D2020A432260E3E72168844801401E
:10065000216021680B400593059B824923680B406C
:100660002360002AD8D1FFF70FFE070080222368FD
:100670009202134200D179E7FFF706FEC01B6428FF
:10068000F4D9D6E7EA68042E04D00C2E25D1019BBC
:10069000002B22D123685B0702D5002A00D156E740
:1006A00061682B6970481B0201400B43092163609C
:1006B00023688B4313432360FFF708FFE368664A10
:1006C0001B061B0FD35CD840644B18600020FFF75B
:1006D000A7FD002800D14DE73AE72368002A18D08B
:1006E00009218B4313432360FFF7CEFD070004224B
:1006F0002368134207D062682B695B491B020A40DA
:100700001343636036E7FFF7BFFDC01B0228EED935
:100710008FE7012293432360FFF7B6FD0700042211
:100720002368134200D125E7FFF7AEFDC01B022866
:10073000F5D97EE7EB69002B20D0802322685B008F
:1007400013432360FFF7A0FD070080222368920077
:1007500013420DD063683F4A13406A6A13436360D3
:1007600062682B6A12021B06120A134363602DE7AC
:10077000FFF78AFDC01B0228E7D95AE723683B4AE6
:1007800013402360FFF780FD07008022236892005A
:10079000134200D11AE7FFF777FDC01B0228F4D9F6
:1007A00047E76A690123002A10D0226D13432365AD
:1007B000FFF76AFD07000222236D134200D009E70C
:1007C000FFF762FDC01B0228F5D932E7226D9A437C
:1007D0002265FFF759FD07000222236D134200D165
:1007E000F8E6FFF751FDC01B0228F5D921E7802369
:1007F0000021A26B5B0501911A4204D1A26B134345
:10080000A363012301938022194F52003B681342D6
:1008100008D08022AB68520093422BD1226D134343
:1008200023654CE080223B68520013433B60FFF796
:100830002BFD80235B00029003933B68039A1342D5
:10084000E7D1FFF721FD029BC01A6428F5D9F0E635
:1008500000100240FF1FFFFF091A000800050020DA
:10086000FFFFFEFFFFFFFBFFFFE0FFFFFFFEFFFFBD
:1008700000700040002B16D1236D6C4A1340236595
:10088000236D6B4A13402365FFF7FEFC07008022AF
:10089000236D920013422AD0FFF7F6FC654BC01B74
:1008A0009842F4D9C5E6A021C9008B420BD1802320
:1008B000216DDB000B432365236D1A432265FFF78F
:1008C000E3FC07000EE0236D584A13402365236DB7
:1008D000574A1340A4E7FFF7D7FC564BC01B98427A
:1008E00000D9A6E68022236D92001342F3D0019B2B
:1008F000012B00D072E6A36B4F4A1340A3636DE651
:10090000A96901234D4A002918D0A1681943A160A3
:10091000616B0B4363638023116A9B010B4313627A
:10092000FFF7B2FC07000222A368134200D059E689
:10093000FFF7AAFCC01B0228F5D97AE6A168994303
:10094000A160136A3E490B401362FFF79DFC07004C
:100950000222A368134200D144E6FFF795FCC01BB6
:100960000228F5D965E60C2E43D0364A022B2ED14B
:100970002368802613402360FFF786FC0700B60437
:10098000236833421DD1296BEB6AE2680B432E4981
:100990000A4013436A6B80251343E3608023226877
:1009A0005B0413432360FFF76FFC0600AD0423686C
:1009B0002B4200D01AE6FFF767FC801B0228F6D90D
:1009C00037E6FFF761FCC01B0228D9D931E623685E
:1009D000802513402360FFF757FC0600AD04236811
:1009E0002B4200D102E6FFF74FFC801B0228F6D90C
:1009F0001FE61800012B00D1AAE58022E368E96A0E
:100A000052021A4001208A4200D0A1E5F022296B4F
:100A100092031A408A4200D09AE5C02000040340A5
:100A2000686B181A431E9841C0B291E5FFFEFFFFA4
:100A3000FFFBFFFF88130000FFFFFFEF00000140F6
:100A4000FFDFFFFFFFFFFFFEFFFF02FFF7B5061E00
:100A5000019101D10120FEBD0122514C0199236871
:100A600013408B4227D3326893072FD4D30735D452
:100A70000123226801991A40914200D281E0326834
:100A8000484C530700D584E0130706D5E268336964
:100A90004549DB000A401343E360FFF717FDE368B5
:100AA000424A1B061B0FD35CD840414B1860002004
:100AB000FFF7B6FBCFE72368019993430B4323600D
:100AC00023681340019A9A42C4D1CCE7F0203549FB
:100AD000CB688343B0680343CB60C7E7314D72688E
:100AE0002B68022A19D19B03B4D50321EB688B43F1
:100AF0001343EB60FFF7C8FB73680700022B19D1A3
:100B00000C22EB681340082BB2D0FFF7BDFB294B3A
:100B1000C01B9842F4D903209DE7032A02D19B0110
:100B2000E3D497E7012A02D15B07DED492E79B0565
:100B3000DBD48FE7032B0BD10C22EB6813409342DD
:100B400096D0FFF7A1FB1B4BC01B9842F4D9E2E7FC
:100B5000012B10D00C22EB68134289D0FFF794FBD5
:100B6000144BC01B9842F5D9D5E7FFF78DFB114B0D
:100B7000C01B9842CFD80C22EB681340042BF4D151
:100B800076E722689A43226022681A4200D061E721
:100B900075E7E36808490B40F1680B43E36073E7CE
:100BA0000020024000100240FFC7FFFF091A0008A2
:100BB0000005002088130000FFF8FFFFF8B50400CF
:100BC0000D0016001F00226893682B409D4201D043
:100BD000002031E0731CF7D0FFF756FBC01B8642A4
:100BE000F1D8E02123685A688A435A6082226168FA
:100BF000520091420CD18021A26809028A4203D09E
:100C00008021C9008A4203D140211A688A431A60B0
:100C10008021A26A89018A4206D1196807480140E9
:100C2000196019680A431A602300012251331A70AF
:100C30000023032050342370F8BDC046FFDFFFFFC0
:100C40001300822210B5040040685200904208D17F
:100C50000A0080212000FFF7B1FF002809D1002001
:100C600010BD220051321278052AF8D10A00012164
:100C7000F0E72023626D032013436365F0E7000073
:100C800070B504000120002C37D000232500A3629A
:100C900051352B78DBB2002B05D122005032137076
:100CA000200000F0D5FC0223402221682B700B6845
:100CB000A06893430B606368A2690343E068034341
:100CC0002069034360690343E0690343206A0343E7
:100CD000A06A034380208000104003430B6004237C
:100CE000120C1A40636A00201A434A60CB69034A17
:100CF0001340CB61012360652B7070BDFFF7FFFFD0
:100D0000F0B587B001930300503303931B780400C0
:100D10000E0017000225012B79D00123039A1370CE
:100D2000FFF7B2FA2200029051321378DBB2012BA6
:100D300067D11D00002E64D0002F62D002331370E3
:100D400000236365A363E786A387E3876364236463
:100D50008023A2682663A7861B029A4205D18023BE
:100D60002268DB0111680B43136040222368196875
:100D7000114202D119680A431A608021E068090112
:100D80006268884246D1002A01D0012F07D13288FB
:100D90000236DA60E38E2663013B9BB2E3860225CE
:100DA000E38E002B15D1029A01992000FFF748FF2E
:100DB000002859D1A368002B06D105932368DA686F
:100DC00005929B680593059B656D6B1E9D41EDB279
:100DD00017E0226893682B4209D0236B19880233ED
:100DE000D1602363E38E013B9BB2E386D8E7FFF734
:100DF0004BFA029BC01A019B9842D1D30133CFD04A
:100E000003250123513423700023039A1370280013
:100E100007B0F0BD002A01D0012F08D132781A7333
:100E2000236B01332363E38E013B9BB2E3860225F0
:100E3000E38E002BB7D023689A682A420AD0226B2F
:100E400012781A73236B01332363E38E013B9BB249
:100E5000E386EDE7FFF718FA029BC01A019B834275
:100E6000E6D80133E4D0CBE720236365A2E7000096
:100E7000802210B50368D205904205D0104CA042E4
:100E800002D0104CA0420FD17024A3434C682343DE
:100E9000904205D00A4A904202D00A4A904203D1B9
:100EA000094A1340CA681343802293430A691343D3
:100EB00003608B68C3620B6883620123436110BDCA
:100EC0000008014000140140FFFCFFFF70B5040062
:100ED0000120002C14D0250039352B78DBB2002BF3
:100EE00005D1220038321370200000F0DDFB022310
:100EF00020682B70211DFFF7BBFF012300202B7002
:100F000070BD012203680720D9681143D960996830
:100F10000140062902D019680A431A600020704770
:100F2000F0B5040002223834257803001000012DAA
:100F300017D01D0001271B68393527702A709A6861
:100F4000454802409A600A68402A00D16DE014D8F2
:100F5000102A0BD006D8002A08D0012300202B70BD
:100F60002070F0BD202A01D0302AF6D17021986877
:100F7000884369390A4302433DE0602A3DD017D8CF
:100F8000502AEAD14868CA68196A1E6A1201BE432B
:100F9000F0271E629E69BE4332430A26B1430143D5
:100FA0009A61196270219A688A431100572221E0E0
:100FB000702A12D0802080018242CED19A682748C0
:100FC0004E6810408A68C968324309020A430243E6
:100FD0009A6080229968D2010CE09A681F484E6896
:100FE00010408A68C968324309020A4302439A6082
:100FF000772299680A439A60AFE71026186A4A6810
:10100000B043C96818629E69154F09033E403143D9
:10101000A026186A99617021B043120102431A6236
:101020009A688A4311006722E4E74868CA68196A27
:101030001E6A1201BE43F0271E629E69BE43324300
:101040000A26B14301439A61196270219A688A4362
:1010500011004722CEE7C0468800FFFFFF00FFFFD8
:10106000FF0FFFFF704770477047704770470222BD
:10107000036810B51969040011420DD0D9681142F6
:101080000AD0053A1A619B69043202769B075ED04A
:10109000FFF7EAFF0023237604222368196911422F
:1010A00010D0D96811420DD0093A1A610732227660
:1010B0009A69C0239B0020001A424ED0FFF7D4FF4C
:1010C0000023237608222368196911420ED0D968BB
:1010D00011420BD0113A1A61DB690D3222762000E1
:1010E0009B0740D0FFF7C0FF002323761022236820
:1010F0001969114210D0D96811420DD0213A1A61F4
:1011000019322276DA69C0239B0020001A4230D0BF
:10111000FFF7AAFF002323760122236819691142F1
:1011200007D0D968114204D0033A1A612000FFF7B2
:1011300099FF402223681969114207D0D9681142EA
:1011400004D0813A1A612000FFF790FF10BDFFF72D
:101150008AFF2000FFF789FF9CE7FFF784FF20004C
:10116000FFF783FFACE7FFF77EFF2000FFF77DFF6F
:10117000BAE7FFF778FF2000FFF777FFCAE770B5FF
:1011800004003834227803000220012A13D01D0005
:10119000702639352870186842688368B2430E6833
:1011A000496832438026B3430B4342608360012386
:1011B00000202B70207070BD10B594B03822002133
:1011C00006A800F0F2FB1422002101A800F0EDFBBC
:1011D0001049114A0B6800241A4080231B01134355
:1011E0000B60102306930F3B0D93A02306A81B0250
:1011F0000F930E941094FFF7A5F90F23210001A877
:1012000001930294039404940594FFF71FFC14B017
:1012100010BDC04600700040FFE7FFFFF0B501259C
:101220008BB0FFF715F8FFF7C7FF1422002105A8C0
:1012300000F0BBFB0221A027404BFF01DA6A4048C7
:101240002A43DA62DA6A80262A400192019ADA6A2F
:1012500076000A43DA62DB6A00220B40029339000F
:10126000029BFFF721F9A02000223100C005FFF703
:101270001BF9A0200024334B05A9C0050693059552
:101280000794FFF75BF805A92D4806950597079485
:101290000894FFF753F8A02005A9C0050695059608
:1012A00007940894FFF74AF8220021000520FEF772
:1012B000F1FF0520FFF71EF82348244B84600360EC
:1012C00082235B004360FC338361D13BFF3BC361FE
:1012D000293BC362C4600461446104624462846265
:1012E000FFF7CEFC1022210005A800F05EFB0822CB
:1012F000210003A800F059FB8023154DDB052B606E
:101300009D23DB016B6064232800EB60AC602C61E3
:101310006C61FFF7DBFD802305A95B0128000593C5
:10132000FFF7FEFD03A9280003940494FFF727FFAD
:1013300000F070F82800FFF7E4FDFEE7001002401F
:101340000004005000002110280500200038004053
:101350008005002010B5084C02212378002B05D011
:10136000064800F00FF80023237010BD044800F079
:1013700009F80123F8E7C0462005002000000020FE
:1013800002000020F8B506000F00A0208021802573
:101390000C4C6D0100224900C005FFF785F82900BB
:1013A00020000022FFF780F8FA233A0031009B006A
:1013B0000548FFF7A5FC290001222000FFF774F87B
:1013C000F8BDC0460004005028050020F8B506000E
:1013D0000F00A020802180250C4C6D0101224900C6
:1013E000C005FFF761F8290020000022FFF75CF834
:1013F000FA233A0031009B000548FFF781FC2900E1
:1014000001222000FFF750F8F8BDC046000400504C
:1014100028050020A02130B5082585B00122C9018A
:101420000E48FFF741F80E4C2A00210002A800F0F8
:10143000B3FA6119022401A8220000F0ADFA2900D4
:1014400002A8FFF79FFF210001A8FFF79BFF802163
:101450000448C900FFF7BAFF05B030BD00040050D2
:10146000D41900080400002010B58024E4000121F4
:101470000348013CFFF7AAFF002CF8D110BDC0467D
:1014800021050020F0B505000624022689B003914D
:101490002A78002A60D01300163B634311000193A1
:1014A000230041394B43100002930023C9B2303866
:1014B0000491C1B205910499192907D827490298C6
:1014C0000918C95C06A8C154210019E00599092929
:1014D00002D822490198F3E7252A06D11F498C46F4
:1014E0001900D8316046415CECE73A2A17D11B4914
:1014F0008C461900EA316046415C06A8C1543100AF
:1015000006A8185C039F38438446674606A81F5404
:101510000133062BCFD1FFF759FF0135B8E72E2A4B
:1015200004D10E498C461900EC31E4E7202A04D19D
:101530000A498C461900E431D4E7402A04D107490E
:101540008C461900E431D6E721002A2AD8D1034974
:101550008C461900DE31C5E709B0F0BD0404002057
:10156000F0B51E000025222387B001913049039277
:1015700005AC04AA137055709570070003220A3158
:10158000200000F009FA3378312B1DD11F3B0321D5
:1015900004A8A370FFF7F6FE03212000FFF7F2FE78
:1015A00029003800FFF76EFF21230321637004A890
:1015B0001133A370FFF7E6FE03212000FFF7E2FEE0
:1015C00029000198FFF75EFF33780293322B2CD16C
:1015D000032504AB00265D709D701223290004A82A
:1015E000A3706670FFF7CEFE29002000FFF7CAFE49
:1015F00031003800FFF746FF212363706B461B7AEA
:1016000029002000A370FFF7BDFE31000198FFF70D
:1016100039FF41232900637020001833A370FFF7BE
:10162000B1FE31000398FFF72DFF07B0F0BDC046B3
:10163000D41900080122054B596B0A435A638022D2
:10164000996B52050A439A637047C04600100240E6
:1016500010B5040086B01422002101A800F0A5F9FD
:101660000E4B22689A4217D180220D4BD201996B02
:101670000C480A439A630222D96A1143D962DB6A91
:1016800001A913400093009BA0231B020193032395
:1016900002920493FEF752FE06B010BD00380040DF
:1016A00000100240000400508023026810B5DB05E2
:1016B0009A420CD10123064A0F20916B0B4393638E
:1016C00000221100FEF7E6FD0F20FEF713FE10BD0D
:1016D000001002407047FEE77047704710B5FEF7F4
:1016E000CBFD10BD10B50120FEF7E4FE10BD0000DB
:1016F000F7B522236A46002501AC1370557095702A
:101700005B490322200000F047F95A4F3B78AB4277
:101710002ED0FFF7A9FE03216846FFF733FE032111
:101720002000FFF72FFE29005348FFF7ABFE1323DD
:101730000321637068461F33A370FFF723FE032164
:101740002000FFF71FFE29004C48FFF79BFE3323C4
:101750000321637068460633A370FFF713FE03216D
:101760002000FFF70FFE29004548FFF78BFE3D7074
:10177000444B1B78002B48D06A4602230026537046
:10178000937003217D336846A3706670FFF7FAFDFE
:1017900003212000FFF7F6FD31003B48FFF772FE02
:1017A00003256B465D709D701323290063706846A6
:1017B0000D33A370FFF7E6FD29002000FFF7E2FDDF
:1017C00031002E48FFF75EFE332329006370684620
:1017D0000633A370FFF7D6FD29002000FFF7D2FDE6
:1017E00031002748FFF74EFE5A23290063706846F0
:1017F0000633A370FFF7C6FD29002000FFF7C2FDE6
:1018000031002248FFF73EFE3E70214CA378392B71
:101810002CD16378392B26D123783022392B1FD154
:101820002270627030231B4DA37023781A4E6B70A8
:1018300063782200AB70A3782100EB703123200085
:1018400033703300FFF78CFE32232A0033702100FF
:1018500033002000FFF784FE1048FFF708FCF7BDB7
:1018600001332370DDE701336370DBE70133DAE72F
:10187000E1190008FC040020E4190008FB19000825
:10188000FF190008FB040020011A0008071A0008CD
:10189000F7040020F2040020FD0400208005002051
:1018A0008022104B520019680A431A60DA680E4908
:1018B0000A40DA601A680D490A4001211A609A68E4
:1018C0008A439A601A680A490A401A60DA68094924
:1018D0000A40DA6000221A618022074B12059A60E2
:1018E0007047C046001002400C40FF88F6FFF6FE2D
:1018F000FFFFFBFFFFFF02FF00ED00E00D48854604
:10190000002103E00C4B5B58435004310B480C4B57
:1019100042189A42F6D30B4A02E0002313600432C5
:10192000094B9A42F9D3FFF7BBFF00F011F8FFF71C
:1019300075FCFEE7002000202C1A000800000020A3
:101940000405002004050020BC050020FEE700007F
:1019500070B500260C4D0D4C641BA410A64209D195
:10196000002600F02BF80A4D0A4C641BA410A64276
:1019700005D170BDB300EB5898470136EEE7B300D0
:10198000EB5898470136F2E7241A0008241A000899
:10199000241A0008281A0008002310B59A4200D122
:1019A00010BDCC5CC4540133F8E7030082189342A5
:1019B00000D1704719700133F9E70000F8B5C0464F
:1019C000F8BC08BC9E467047F8B5C046F8BC08BCD9
:0419D0009E46704778
:1019D400A83FD3002010AFACC8A121007F21007F15
:1019E40020202020202020202020202020202020F3
:1019F40020202020202000402A20002500544F547D
:101A04004F20004D00000000000000000001020310
:101A14000406070809030406080C10182030000007
:041A2400E9000008CD
:041A2800C1000008F1
:101A2C0081FF810F000000C0FEFEFE0E0E7EFCF852
:101A3C00C000000000000000000000000000C0F822
:101A4C00FC7E0E0EFEFEFEC000000000000000003A
:101A5C000000000000FC3FFF000000000000000040
:101A6C000000000000000000000000000000FEFE6E
:101A7C00FEFEFE0E0E0E0E0E0E0E0E0E0E1E1E3C5C
:101A8C00FCF8F0E0000000000000000000F0F8FCA2
:101A9C00FC3E1E1E0E0E0E0E0E0E0E0E0E0E0E0E1C
:101AAC000E0E0E00000000FFFFFF0F000000030FE2
:101ABC007FFEF0C000000000000000C0F0FE7F0FB1
:101ACC00030000000FFFFFFF0000000000000000FB
:101ADC0000000080FE030007FC0000000000000076
:101AEC000000000000000000000000000000FFFFEC
:101AFC00FFFFFF8080808080808080808080C0E0BD
:101B0C00FFFF7F3F0000000000000000000F3F7F40
:101B1C00FFF8F0F0E0E0E0C0C0C0C08080800000C2
:101B2C0000000000000000FFFFFF000000000000AC
:101B3C0000073FFFFFF0800080F0FFFF3F07000031
:101B4C000000000000FFFFFF00000000000000008C
:101B5C000000703F000000003FC0000000000000CB
:101B6C000000000000000000000000000000FFFF6B
:101B7C00FFFFFF070707070707070707070F7FFD8B
:101B8C00F0F0C000000000000000000000000000A9
:101B9C00000001010101010303030307070F1FFFED
:101BAC00FEFCF0000000007F7F7F000000000000C2
:101BBC0000000001070707060707070100000000E7
:101BCC0000000000007F7F7F0080F8E00000000034
:101BDC0000F00F000000000000FF000000000000FB
:101BEC000000000000000080F03CF0C00000FFFF8F
:101BFC00FFFFFF00000000000000000000000003D9
:101C0C001F7F7F7E780000000000000000007070D5
:101C1C00707070707070707070707078787C3E3FFF
:101C2C003F1F03000C0C0C0C0C0C0C0C0C0C0C0CB7
:101C3C000C0C0C0C0C0C0C0C0C0C0C0C0C0C0C0CD8
:101C4C000C0C0C0C0C0C0C0C0C0700037C80000016
:101C5C00FC070000000000000003FF00000000C0B3
:101C6C00F0E0800080F01C070000000F1FF8E0007F
:101C7C000000C0F80C0C0C0C0C0C0C0C0C0C0C0C10
:101C8C000C0C0C0C0C0C0C0C0C0C0C0C0C0C0C0C88
:101C9C000C0C0C0C0C0C0C0C0C0C0C0C0C0C0C0C78
:101CAC000C0C0C0C000000000000000000000000F8
:101CBC000000000000000000000000000000000018
:101CCC000000000000000000000000000007F87F8A
:101CDC00010000000000000000001FE0000000FFF9
:101CEC000001070707010000000000000000031FAF
:101CFC003C1F03000000000000000000000000007A
:101D0C0000000000000000000000000000000000C7
:101D1C0000000000000000000000000000000000B7
:101D2C0000000000000000000000000000000000A7
:101D3C000000000000000000000000000000000097
:101D4C000000000000000000000000000000010086
:101D5C000000000000000000000000FF0000FC3F3D
:101D6C000000000000000000000000000000000067
:101D7C000000000000000000000000000000000057
:101D8C000000000000000000000000000000000047
:101D9C000000000000000000000000000000000037
:101DAC000000000000000000000000000000000027
:101DBC000000000000000000000000000000000017
:101DCC000000000000000000000000000000000007
:101DDC00000000000000000000000001FFFC0F00EC
:101DEC0000000000000000000000000000000000E7
:101DFC0000000000000000000000000000000000D7
:101E0C0000000000000000000000000000000000C6
:101E1C0000000000000000000000000000000000B6
:101E2C00000000007E0909097E007F4949493600FF
:101E3C003E41414122007F4141221C007F494949DA
:101E4C0041007F09090901003E41414938007F08E2
:101E5C0008087F0041417F41410031413F010100B1
:101E6C007F08142241007F40404040007F02140252
:101E7C007F007F0408107F003E4141413E007F09F6
:101E8C00090906003E4151215E007F0919294600CF
:101E9C0026494949320001017F0101003F40404081
:101EAC003F001F2040201F003F4030403F00631484
:101EBC00081463000304780403006151494543008E
:101ECC003E5149453E0044427F40400042615149E9
:101EDC0046002249494936001814127F10002F4938
:101EEC00494931003E494949320003017109070053
:101EFC00364949493600264949493E002210080412
:101F0C0022000619621906000000000000002200E1
:101F1C0040004E30303000303030000101310000D4
:041F2C000000200091
:04000005080018FDDA
:00000001FF
