:020000040800F2
:100000000020002075120008091200080B120008D9
:1000100000000000000000000000000000000000E0
:100020000000000000000000000000000D120008A9
:1000300000000000000000000F120008111200086C
:10004000C5120008C5120008C5120008C512000834
:10005000C5120008C5120008C5120008C512000824
:10006000C5120008C5120008C5120008C512000814
:10007000C5120008C512000800000000C5120008E3
:1000800000000000C5120008000000000000000091
:10009000C512000800000000C5120008C5120008C3
:1000A000C5120008C5120008C5120008C5120008D4
:1000B000C5120008C5120008C5120008C5120008C4
:1000C00010B5064C2378002B07D1054B002B02D02E
:1000D000044800E000BF0123237010BD8C00002005
:1000E0000000000034130008044B10B5002B03D0AF
:1000F0000349044800E000BF10BDC04600000000F6
:100100009000002034130008002243088B4274D36F
:1001100003098B425FD3030A8B4244D3030B8B4208
:1001200028D3030C8B420DD3FF22090212BA030C11
:100130008B4202D31212090265D0030B8B4219D3F2
:1001400000E0090AC30B8B4201D3CB03C01A524112
:10015000830B8B4201D38B03C01A5241430B8B425A
:1001600001D34B03C01A5241030B8B4201D30B0343
:10017000C01A5241C30A8B4201D3CB02C01A52416A
:10018000830A8B4201D38B02C01A5241430A8B422D
:1001900001D34B02C01A5241030A8B4201D30B0216
:1001A000C01A5241CDD2C3098B4201D3CB01C01A30
:1001B000524183098B4201D38B01C01A524143093A
:1001C0008B4201D34B01C01A524103098B4201D328
:1001D0000B01C01A5241C3088B4201D3CB00C01A95
:1001E000524183088B4201D38B00C01A524143080D
:1001F0008B4201D34B00C01A5241411A00D2014632
:10020000524110467047FFE701B5002000F006F8A4
:1002100002BDC0460029F7D076E770477047C04658
:10022000FA210A4B70B5890005001868FFF76CFFCA
:1002300000F060F804000120002C05D102382200F3
:10024000290000F027F8200070BDC046880000207B
:100250004023084A10B5116800200B431360FFF7D4
:10026000DFFF041E03D100F095FF200010BD012424
:10027000FBE7C04600200240024A136801331360C6
:100280007047C046AC000020014B18687047C0465C
:10029000AC00002070B58901002814DA0F23C0B229
:1002A0000340083B114A9B089B009B180322104007
:1002B0009040FC321500114085408140DC69AC4320
:1002C0002143D96170BD032583082840A840FC352F
:1002D0002E00074A9B009B18C0228640294081407F
:1002E00092009C58B44321439950EBE700ED00E0A5
:1002F00000E100E0094A431E012093420DD8C021CD
:10030000074A08485360036A09061B021B0A0B438D
:10031000036200200723906013607047FFFFFF0017
:1003200010E000E000ED00E0F0B5534A0B688218E1
:10033000541EA24185B00193002305320392019A15
:10034000DA4001D105B0F0BD01259D40019A2A4057
:10035000009200D18DE04A6894461022644694438E
:100360002200013C022A1FD107240F271C40A400B1
:10037000A740DA0892008218166ABE430F69A740A8
:100380003E43166203245E00B4408268A243CC68F8
:10039000B440224382606246D206D20F9A4044683B
:1003A000AC432243426001E0012CEBD90326340028
:1003B0005D00AC406246E4433240AA4007682740F3
:1003C0003A430260C26814408A68AA4014436246F5
:1003D000C460D2004DD50125284C0F27626B2A43FB
:1003E0001D003540AD00AF406263254A9C08A40063
:1003F000A418A268BA43A0270292FF050022B842BF
:100400000CD0204F0132B84208D01F4F0132B84201
:1004100004D01E4F3200B84200D0039AAA4067466B
:10042000029D2A43A2601A4A009C1668009DE4437C
:100430003543FF0301D435002540674615605668F3
:10044000009D3543BF0301D4350025406746556004
:100450009668009D3543FF0201D43500254067466C
:100460009560D568009E2E43BF0201D425402E0022
:10047000D660013363E7C04600E4FFAF00100240DE
:10048000000001400004005000080050000C005023
:1004900000040140002A01D0816170478162FCE7BD
:1004A0000C22184B10B5D9680A40082A26D00C2A0D
:1004B00006D0042A1AD11B68DB0621D4124810BDCD
:1004C0008A021248120F825C0902D868890F013132
:1004D000C00304D50E485043FFF716FEEFE71B6834
:1004E000DB0601D50B48F6E70748F4E780205B6898
:1004F00000021B045B0F01339840E0E70448DEE78D
:100500000448DCE7001002400024F40062130008F5
:1005100000127A0000093D00F0B5050087B0002800
:1005200002D1012007B0F0BD0C23BE4CE668E268A2
:100530001E4080235B021A4001920268D20741D418
:100540002B689B0700D587E02B68DB0628D5002E9B
:1005500000D0D9E023689B0502D5EB69002BE0D0E1
:100560006268B1496B6A0A401A43626061682A6A2C
:100570000902090A12060A43626080225B0B0133FA
:1005800012029A401300E16800200A06A749120FE0
:100590008A5CD340A64A1360FFF742FE0028C1D10F
:1005A0002B681B0700D5E6E02B685B0700D508E148
:1005B0002B689B0600D58DE1AB6A002B00D0BCE117
:1005C0000020AFE7082E04D00C2E09D1019A002A92
:1005D00006D023689B03B3D56B68002BB0D1A0E78E
:1005E0006A689A4211D1226813432360FFF74CFED8
:1005F00007008022236892021342A1D1FFF744FE34
:10060000C01B6428F5D903208CE7A021C9028A42C7
:1006100005D180222168D2020A432260E3E72168E3
:1006200084480140216021680B400593059B824965
:1006300023680B402360002AD8D1FFF725FE07006E
:10064000802223689202134200D179E7FFF71CFE53
:10065000C01B6428F4D9D6E7EA68042E04D00C2E17
:1006600025D1019B002B22D123685B0702D5002AEC
:1006700000D156E761682B6970481B0201400B43AB
:100680000921636023688B4313432360FFF708FF4E
:10069000E368664A1B061B0FD35CD840644B1860A6
:1006A0000020FFF7BDFD002800D14DE73AE72368A1
:1006B000002A18D009218B4313432360FFF7E4FD80
:1006C000070004222368134207D062682B695B4944
:1006D0001B020A401343636036E7FFF7D5FDC01BDA
:1006E0000228EED98FE7012293432360FFF7CCFD68
:1006F000070004222368134200D125E7FFF7C4FD59
:10070000C01B0228F5D97EE7EB69002B20D080239F
:1007100022685B0013432360FFF7B6FD07008022C9
:100720002368920013420DD063683F4A13406A6AFF
:100730001343636062682B6A12021B06120A13439A
:1007400063602DE7FFF7A0FDC01B0228E7D95AE739
:1007500023683B4A13402360FFF796FD0700802281
:1007600023689200134200D11AE7FFF78DFDC01BEA
:100770000228F4D947E76A690123002A10D0226DC4
:1007800013432365FFF780FD07000222236D134208
:1007900000D009E7FFF778FDC01B0228F5D932E742
:1007A000226D9A432265FFF76FFD07000222236D39
:1007B000134200D1F8E6FFF767FDC01B0228F5D908
:1007C00021E780230021A26B5B0501911A4204D12D
:1007D000A26B1343A363012301938022194F52009C
:1007E0003B68134208D08022AB68520093422BD161
:1007F000226D134323654CE080223B685200134373
:100800003B60FFF741FD80235B00029003933B6850
:10081000039A1342E7D1FFF737FD029BC01A642801
:10082000F5D9F0E600100240FF1FFFFF5213000849
:1008300088000020FFFFFEFFFFFFFBFFFFE0FFFF40
:10084000FFFEFFFF00700040002B16D1236D6C4AA5
:1008500013402365236D6B4A13402365FFF714FD96
:1008600007008022236D920013422AD0FFF70CFD6F
:10087000654BC01B9842F4D9C5E6A021C9008B4244
:100880000BD18023216DDB000B432365236D1A43BD
:100890002265FFF7F9FC07000EE0236D584A13406C
:1008A0002365236D574A1340A4E7FFF7EDFC564B31
:1008B000C01B984200D9A6E68022236D9200134205
:1008C000F3D0019B012B00D072E6A36B4F4A13407B
:1008D000A3636DE6A96901234D4A002918D0A168D8
:1008E0001943A160616B0B4363638023116A9B0111
:1008F0000B431362FFF7C8FC07000222A3681342F0
:1009000000D059E6FFF7C0FCC01B0228F5D97AE6F3
:10091000A1689943A160136A3E490B401362FFF737
:10092000B3FC07000222A368134200D144E6FFF79C
:10093000ABFCC01B0228F5D965E60C2E43D0364A25
:10094000022B2ED12368802613402360FFF79CFCE6
:100950000700B604236833421DD1296BEB6AE268B5
:100960000B432E490A4013436A6B80251343E3600F
:10097000802322685B0413432360FFF785FC060095
:10098000AD0423682B4200D01AE6FFF77DFC801BE4
:100990000228F6D937E6FFF777FCC01B0228D9D921
:1009A00031E62368802513402360FFF76DFC0600C5
:1009B000AD0423682B4200D102E6FFF765FC801BE3
:1009C0000228F6D91FE61800012B00D1AAE58022E3
:1009D000E368E96A52021A4001208A4200D0A1E588
:1009E000F022296B92031A408A4200D09AE5C02077
:1009F00000040340686B181A431E9841C0B291E589
:100A0000FFFEFFFFFFFBFFFF88130000FFFFFFEF6C
:100A100000000140FFDFFFFFFFFFFFFEFFFF02FFBF
:100A2000F7B5061E019101D10120FEBD0122514CF6
:100A30000199236813408B4227D3326893072FD440
:100A4000D30735D40123226801991A40914200D27C
:100A500081E03268484C530700D584E0130706D57F
:100A6000E26833694549DB000A401343E360FFF75E
:100A700017FDE368424A1B061B0FD35CD840414B6D
:100A800018600020FFF7CCFBCFE723680199934360
:100A90000B43236023681340019A9A42C4D1CCE7E8
:100AA000F0203549CB688343B0680343CB60C7E788
:100AB000314D72682B68022A19D19B03B4D50321EA
:100AC000EB688B431343EB60FFF7DEFB73680700B3
:100AD000022B19D10C22EB681340082BB2D0FFF780
:100AE000D3FB294BC01B9842F4D903209DE7032A6E
:100AF00002D19B01E3D497E7012A02D15B07DED440
:100B000092E79B05DBD48FE7032B0BD10C22EB681C
:100B10001340934296D0FFF7B7FB1B4BC01B984284
:100B2000F4D9E2E7012B10D00C22EB68134289D0F4
:100B3000FFF7AAFB144BC01B9842F5D9D5E7FFF786
:100B4000A3FB114BC01B9842CFD80C22EB6813407B
:100B5000042BF4D176E722689A43226022681A4275
:100B600000D061E775E7E36808490B40F1680B4383
:100B7000E36073E70020024000100240FFC7FFFF60
:100B8000521300088800002088130000FFF8FFFFC0
:100B9000F8B504000D0016001F00226893682B4072
:100BA0009D4201D0002031E0731CF7D0FFF76CFBB1
:100BB000C01B8642F1D8E02123685A688A435A60F4
:100BC00082226168520091420CD18021A268090200
:100BD0008A4203D08021C9008A4203D140211A6889
:100BE0008A431A608021A26A89018A4206D1196863
:100BF00007480140196019680A431A60230001225E
:100C000051331A700023032050342370F8BDC046BE
:100C1000FFDFFFFF1300822210B50400406852007E
:100C2000904208D10A0080212000FFF7B1FF002880
:100C300009D1002010BD220051321278052AF8D1C6
:100C40000A000121F0E72023626D0320134363654E
:100C5000F0E7000070B504000120002C37D000231D
:100C60002500A36251352B78DBB2002B05D1220081
:100C700050321370200000F09BFA022340222168BA
:100C80002B700B68A06893430B606368A2690343F1
:100C9000E06803432069034360690343E069034359
:100CA000206A0343A06A034380208000104003436E
:100CB0000B600423120C1A40636A00201A434A6036
:100CC000CB69034A1340CB61012360652B7070BD73
:100CD000FFF7FFFFF0B587B0019303005033039394
:100CE0001B7804000E0017000225012B79D0012388
:100CF000039A1370FFF7C8FA22000290513213785A
:100D0000DBB2012B67D11D00002E64D0002F62D012
:100D10000233137000236365A363E786A387E38729
:100D2000636423648023A2682663A7861B029A4219
:100D300005D180232268DB0111680B431360402238
:100D400023681968114202D119680A431A60802188
:100D5000E06809016268884246D1002A01D0012F6B
:100D600007D132880236DA60E38E2663013B9BB2FC
:100D7000E3860225E38E002B15D1029A019920000B
:100D8000FFF748FF002859D1A368002B06D105932F
:100D90002368DA6805929B680593059B656D6B1E59
:100DA0009D41EDB217E0226893682B4209D0236B76
:100DB00019880233D1602363E38E013B9BB2E38643
:100DC000D8E7FFF761FA029BC01A019B9842D1D382
:100DD0000133CFD003250123513423700023039A1C
:100DE0001370280007B0F0BD002A01D0012F08D1F0
:100DF00032781A73236B01332363E38E013B9BB27A
:100E0000E3860225E38E002BB7D023689A682A4236
:100E10000AD0226B12781A73236B01332363E38E9B
:100E2000013B9BB2E386EDE7FFF72EFA029BC01A67
:100E3000019B8342E6D80133E4D0CBE720236365EE
:100E4000A2E7000010B594B03822002106A800F0F7
:100E500068FA1422002101A800F063FA1049114A2F
:100E60000B6800241A4080231B0113430B601023DE
:100E700006930F3B0D93A02306A81B020F930E941D
:100E80001094FFF749FB0F23210001A8019302945E
:100E9000039404940594FFF7C3FD14B010BDC0463D
:100EA00000700040FFE7FFFFF8B506000F00A0202C
:100EB000802180250C4C6D0100224900C005FFF700
:100EC000E9FA290020000022FFF7E4FAFA233A00A9
:100ED00031009B000548FFF7FDFE2900012220009C
:100EE000FFF7D8FAF8BDC04600040050B00000205B
:100EF000F8B506000F00A020802180250C4C6D0164
:100F000001224900C005FFF7C5FA29002000002290
:100F1000FFF7C0FAFA233A0031009B000548FFF7BB
:100F2000D9FE290001222000FFF7B4FAF8BDC0461F
:100F300000040050B0000020F0B589B0FFF788F938
:100F4000FFF780FF1422002103A800F0EAF9022035
:100F50000125A026734BF601D96A80270143D96287
:100F6000DA6A310002400192019ADA6A6E482A4335
:100F7000DA62DB6A00222B400293029BFFF78AFAB7
:100F8000A02000247F0000223900C005FFF782FA6C
:100F900003A965480594069403960495FFF7C4F9E0
:100FA000A02003A9C0050594069403970495FFF7B4
:100FB000BBF95E485E4B8460036082235B00436044
:100FC000FC338361D13BFF3BC46004614461046234
:100FD000446284620734C361C462FFF73BFE2A00A7
:100FE00031005148FFF756FA210052488024FFF79C
:100FF0005BFFE40001215048013CFFF779FF002C22
:10100000F8D1032506344D4E2A003100684600F021
:101010007FF92A00F11C03A800F07AF9290068463C
:10102000FFF742FF290003A8FFF73EFF21004448D5
:10103000FFF75EFF21004348FFF75AFF21004248B7
:10104000FFF756FF21004148FFF752FF21004048BB
:10105000FFF74EFF21003F48FFF74AFF21003E48BF
:10106000FFF746FF3D4F21003800FFF741FF210009
:101070003B48FFF73DFF21003A48FFF739FF2100C9
:101080003948FFF735FF394E21003000FFF730FFB8
:1010900021003748FFF72CFF21003648FFF728FFD3
:1010A00021003548FFF724FF21003448FFF720FFD7
:1010B00021003348FFF71CFF21003248FFF718FFDB
:1010C00021003148FFF714FF21003048FFF710FFDF
:1010D00021002F48FFF70CFFB1236A46290068461C
:1010E00053709370FFF7E0FE290003A8FFF7DCFEC2
:1010F00021003800FFF7FCFE21001548FFF7F8FE3D
:1011000021003000FFF7F4FE21003000FFF7F0FE71
:1011100021001948FFF7ECFE01210748FFF7E8FE20
:1011200071E7C0460010024000040050B0000020EB
:10113000003800407E000020A80000204C1300086A
:1011400000000020060000200C00002012000020FB
:10115000180000201E000020240000202A0000208B
:1011600030000020360000203C000020420000201B
:10117000480000204E000020540000205A000020AB
:1011800060000020660000206C000020720000203B
:10119000780000200122054B596B0A435A638022D4
:1011A000996B52050A439A637047C046001002408B
:1011B00010B5040086B01422002101A800F0B1F897
:1011C0000E4B22689A4217D180220D4BD201996BA7
:1011D0000C480A439A630222D96A1143D962DB6A36
:1011E00001A913400093009BA0231B02019303233A
:1011F00002920493FFF798F806B010BD0038004043
:1012000000100240000400507047FEE7704770472E
:1012100010B5FFF731F810BD8022104B520019684D
:101220000A431A60DA680E490A40DA601A680D4902
:101230000A4001211A609A688A439A601A680A492A
:101240000A401A60DA6809490A40DA6000221A6125
:101250008022074B12059A607047C046001002407A
:101260000C40FF88F6FFF6FEFFFFFBFFFFFF02FFCB
:1012700000ED00E00D488546002103E00C4B5B5873
:10128000435004310B480C4B42189A42F6D30B4A98
:1012900002E0002313600432094B9A42F9D3FFF7AE
:1012A000BBFF00F011F8FFF747FEFEE7002000202B
:1012B00074130008000000208C0000208C00002027
:1012C00008010020FEE7000070B500260C4D0D4C13
:1012D000641BA410A64209D1002600F02BF80A4D89
:1012E0000A4C641BA410A64205D170BDB300EB5894
:1012F00098470136EEE7B300EB5898470136F2E71E
:101300006C1300086C1300086C13000870130008BD
:10131000002310B59A4200D110BDCC5CC4540133F7
:10132000F8E703008218934200D170471970013327
:10133000F9E70000F8B5C046F8BC08BC9E46704707
:0C134000F8B5C046F8BC08BC9E467047DB
:10134C0022B0B021007F000000000000000001026C
:10135C00030406070809030406080C1018203000C3
:04136C00E90000088C
:04137000C1000008B0
:101374007E0909097E007F49494936003E414141C1
:1013840022007F4141221C007F49494941007F09D5
:10139400090901003E41414938007F0808087F00DF
:1013A40041417F41410031413F0101007F08142246
:1013B40041007F40404040007F0214027F007F04D0
:1013C40008107F003E4141413E007F0909090600A3
:1013D4003E4151215E007F091929460026494949A9
:1013E400320001017F0101003F4040403F00A83F1F
:0C13F400D3002001AF000000000020002A
:040000050800127568
:00000001FF
